:020000040800F2
:100000000080012001A3000839A200083BA20008DB
:100010003DA200083FA2000841A200080000000025
:1000200000000000000000000000000043A20008E3
:1000300045A200080000000047A2000849A20008ED
:1000400051A3000851A3000851A3000851A30008C0
:1000500051A3000851A3000851A3000851A30008B0
:1000600051A3000851A3000851A3000851A30008A0
:1000700051A3000851A3000855A2000851A300088D
:1000800051A3000851A3000851A30008000000007C
:1000900000000000000000000000000051A3000864
:1000A00051A3000851A3000851A3000851A3000860
:1000B00051A3000851A3000865A2000851A300083D
:1000C00051A3000851A3000851A3000851A3000840
:1000D00051A3000875A2000851A300080000000009
:1000E00051A3000851A3000851A30008000000001C
:1000F00000000000000000000000000051A3000804
:100100000000000051A3000851A3000851A30008FB
:1001100000000000000000000000000000000000DF
:10012000A5A2000851A3000851A3000851A300088C
:1001300051A30008000000000000000000000000C3
:1001400000000000000000000000000051A30008B3
:1001500051A3000851A3000851A3000851A30008AF
:1001600051A3000851A30008000000000000000097
:10017000000000000000000000000000000000007F
:100180000000000051A30008000000000000000073
:0401900051A300086F
:1001A00010B5054C237833B9044B13B10448AFF3B1
:1001B00000800123237010BD7002002000000000A9
:1001C0005CAC00080C4B43B10C480D4910B5AFF3C3
:1001D00000800C48036823B910BD0A48036833B98E
:1001E0007047094B002BF7D0BDE810401847064B6D
:1001F000002BF5D0184700BF000000005CAC0008E1
:1002000074020020700200200000000081F0004114
:1002100002E000BF83F0004330B54FEA41044FEAEB
:10022000430594EA050F08BF90EA020F1FBF54EA86
:10023000000C55EA020C7FEA645C7FEA655C00F022
:10024000E2804FEA5454D4EB5555B8BF6D420CDDF3
:100250002C4480EA020281EA030382EA000083EA76
:10026000010180EA020281EA0303362D88BF30BD16
:1002700011F0004F4FEA01314FF4801C4CEA11316C
:1002800002D0404261EB410113F0004F4FEA0333CB
:100290004CEA133302D0524263EB430394EA050F56
:1002A00000F0A780A4F10104D5F1200E0DDB02FAC5
:1002B0000EFC22FA05F2801841F1000103FA0EF259
:1002C000801843FA05F359410EE0A5F120050EF11F
:1002D000200E012A03FA0EFC28BF4CF0020C43FA50
:1002E00005F3C01851EBE37101F0004507D54FF05D
:1002F000000EDCF1000C7EEB00006EEB0101B1F5AD
:10030000801F1BD3B1F5001F0CD349085FEA3000F2
:100310004FEA3C0C04F101044FEA445212F5800FFD
:1003200080F09A80BCF1004F08BF5FEA500C50F19A
:10033000000041EB045141EA050130BD5FEA4C0C7D
:10034000404141EB010111F4801FA4F10104E9D106
:1003500091F0000F04BF01460020B1FA81F308BFFD
:100360002033A3F10B03B3F120020CDA0C3208DDC9
:1003700002F1140CC2F10C0201FA0CF021FA02F1A4
:100380000CE002F11402D8BFC2F1200C01FA02F114
:1003900020FA0CFCDCBF41EA0C019040E41AA2BF39
:1003A00001EB0451294330BD6FEA04041F3C1CDA01
:1003B0000C340EDC04F11404C4F1200220FA04F021
:1003C00001FA02F340EA030021FA04F345EA0301CB
:1003D00030BDC4F10C04C4F1200220FA02F001FA8D
:1003E00004F340EA0300294630BD21FA04F029460F
:1003F00030BD94F0000F83F4801306BF81F48011A8
:100400000134013D4EE77FEA645C18BF7FEA655C1A
:1004100029D094EA050F08BF90EA020F05D054EAEC
:10042000000C04BF1946104630BD91EA030F1EBFF1
:100430000021002030BD5FEA545C05D140004941F5
:1004400028BF41F0004130BD14F580043CBF01F5E8
:10045000801130BD01F0004545F0FE4141F47001CE
:100460004FF0000030BD7FEA645C1ABF19461046A9
:100470007FEA655C1CBF0B46024650EA013406BFAA
:1004800052EA033591EA030F41F4002130BD00BF69
:1004900090F0000F04BF0021704730B54FF4806426
:1004A00004F132044FF000054FF0000150E700BFA7
:1004B00090F0000F04BF0021704730B54FF4806406
:1004C00004F1320410F0004548BF40424FF00001F3
:1004D0003EE700BF42004FEAE2014FEA31014FEA36
:1004E00002701FBF12F07F4393F07F4F81F0605185
:1004F000704792F0000F14BF93F07F4F704730B5F4
:100500004FF4607401F0004521F0004120E700BF86
:1005100050EA010208BF704730B54FF000050AE00D
:1005200050EA010208BF704730B511F0004502D50E
:10053000404261EB41014FF4806404F132045FEA10
:10054000915C3FF4DCAE4FF003025FEADC0C18BFB5
:1005500003325FEADC0C18BF033202EBDC02C2F1AB
:10056000200300FA03FC20FA02F001FA03FE40EA3D
:100570000E0021FA02F11444C1E600BF70B54FF03D
:10058000FF0C4CF4E06C1CEA11541DBF1CEA13551F
:1005900094EA0C0F95EA0C0F00F0DEF82C4481EA87
:1005A000030621EA4C5123EA4C5350EA013518BFA7
:1005B00052EA033541F4801143F4801338D0A0FB94
:1005C00002CE4FF00005E1FB02E506F00042E0FB41
:1005D00003E54FF00006E1FB03569CF0000F18BF47
:1005E0004EF0010EA4F1FF04B6F5007F64F54074EF
:1005F00004D25FEA4E0E6D4146EB060642EAC62182
:1006000041EA55514FEAC52040EA5E504FEACE2EEE
:10061000B4F1FD0C88BFBCF5E06F1ED8BEF1004FF1
:1006200008BF5FEA500E50F1000041EB045170BD6D
:1006300006F0004646EA010140EA020081EA0301B1
:10064000B4EB5C04C2BFD4EB0C0541EA045170BDAD
:1006500041F480114FF0000E013C00F3AB8014F127
:10066000360FDEBF002001F0004170BDC4F1000470
:10067000203C35DA0C341BDC04F11404C4F12005F1
:1006800000FA05F320FA04F001FA05F240EA02004C
:1006900001F0004221F0004110EBD37021FA04F682
:1006A00042EB06015EEA430E08BF20EAD37070BD3C
:1006B000C4F10C04C4F1200500FA04F320FA05F09B
:1006C00001FA04F240EA020001F0004110EBD3709D
:1006D00041F100015EEA430E08BF20EAD37070BD0D
:1006E000C4F1200500FA05F24EEA020E20FA04F3E6
:1006F00001FA05F243EA020321FA04F001F0004195
:1007000021FA04F220EA020000EBD3705EEA430E05
:1007100008BF20EAD37070BD94F0000F0FD101F034
:100720000046400041EB010111F4801F08BF013C6D
:10073000F7D041EA060195F0000F18BF704703F0AB
:100740000046520043EB030313F4801F08BF013D32
:10075000F7D043EA0603704794EA0C0F0CEA1355EE
:1007600018BF95EA0C0F0CD050EA410618BF52EAA8
:100770004306D1D181EA030101F000414FF00000AE
:1007800070BD50EA410606BF1046194652EA4306BC
:1007900019D094EA0C0F02D150EA013613D195EA30
:1007A0000C0F05D152EA03361CBF104619460AD178
:1007B00081EA030101F0004141F0FE4141F4700182
:1007C0004FF0000070BD41F0FE4141F4780170BD72
:1007D00070B54FF0FF0C4CF4E06C1CEA11541DBFD7
:1007E0001CEA135594EA0C0F95EA0C0F00F0A7F8D9
:1007F000A4EB050481EA030E52EA03354FEA013106
:1008000000F088804FEA03334FF0805545EA131318
:1008100043EA12634FEA022245EA111545EA1065E0
:100820004FEA00260EF000419D4208BF964244F177
:10083000FD0404F5407402D25B084FEA3202B61A96
:1008400065EB03055B084FEA32024FF480104FF46A
:10085000002CB6EB020E75EB030E22BFB61A7546DE
:1008600040EA0C005B084FEA3202B6EB020E75EB71
:10087000030E22BFB61A754640EA5C005B084FEAD9
:100880003202B6EB020E75EB030E22BFB61A7546A6
:1008900040EA9C005B084FEA3202B6EB020E75EBB1
:1008A000030E22BFB61A754640EADC0055EA060E72
:1008B00018D04FEA051545EA16754FEA06164FEAB5
:1008C000C30343EA52734FEAC2025FEA1C1CC0D161
:1008D00011F4801F0BD141EA00014FF000004FF0EE
:1008E000004CB6E711F4801F04BF01430020B4F1AF
:1008F000FD0C88BFBCF5E06F3FF6AFAEB5EB030C67
:1009000004BFB6EB020C5FEA500C50F1000041EB63
:10091000045170BD0EF0004E4EEA113114EB5C0430
:10092000C2BFD4EB0C0541EA045170BD41F4801103
:100930004FF0000E013C90E645EA060E8DE60CEA0B
:10094000135594EA0C0F08BF95EA0C0F3FF43BAF28
:1009500094EA0C0F0AD150EA01347FF434AF95EADF
:100960000C0F7FF425AF104619462CE795EA0C0FC3
:1009700006D152EA03353FF4FDAE1046194622E790
:1009800050EA410618BF52EA43067FF4C5AE50EA6A
:1009900041047FF40DAF52EA43057FF4EBAE12E75A
:1009A0004FEA410212F5001215D211D56FF4787397
:1009B000B3EB625212D94FEAC12343F0004343EA3A
:1009C000505311F0004F23FA02F018BF4042704715
:1009D0004FF00000704750EA013005D111F000409F
:1009E00008BF6FF0004070474FF00000704700BF35
:1009F0007BB972B90029BEBF00204FF0004106E06C
:100A000008BF00281CBF6FF000414FF0FF3000F01E
:100A1000C5B9ADF1080C6DE904CE002909DB002B46
:100A20001ADB00F04DF8DDF804E0DDE9022304B044
:100A30007047404261EB4101002B1BDB00F040F8A6
:100A4000DDF804E0DDE9022304B0404261EB41013E
:100A5000524263EB43037047524263EB430300F09F
:100A60002FF8DDF804E0DDE9022304B0404261EB39
:100A700041017047524263EB430300F021F8DDF877
:100A800004E0DDE9022304B0524263EB4303704704
:100A900053B94AB9002908BF00281CBF4FF0FF31E5
:100AA0004FF0FF3000F07AB9ADF1080C6DE904CEDB
:100AB00000F006F8DDF804E0DDE9022304B0704739
:100AC0002DE9F0478C460D460446089E002B51D177
:100AD0008A4217466DD9B2FA82FEBEF1000F0BD0E2
:100AE000CEF1200C01FA0EF520FA0CFC02FA0EF7FA
:100AF0004CEA050C00FA0EF44FEA174A250CBCFB31
:100B0000FAF81FFA87F90AFB18CC45EA0C4508FBEE
:100B100009F3AB420AD9ED1908F1FF3280F02381C5
:100B2000AB4240F22081A8F102083D44ED1AA4B284
:100B3000B5FBFAF00AFB105544EA054400FB09F93D
:100B4000A14509D9E41900F1FF3380F00A81A145DC
:100B500040F2078102383C44A4EB090440EA084013
:100B60000021002E61D024FA0EF40023346073605B
:100B7000BDE8F0878B4207D9002E54D0002186E8CB
:100B800021000846BDE8F087B3FA83F1002940F060
:100B90008E80AB4202D3824200F2FA80841A65EB67
:100BA00003050120AC46002E3FD086E81010BDE8BA
:100BB000F08712B90127B7FBF2F7B7FA87FEBEF14B
:100BC000000F34D1EB1B3A0C1FFA87FC0121B3FB59
:100BD000F2F8250C02FB183345EA03450CFB08F339
:100BE000AB4207D9ED1908F1FF3002D2AB4200F257
:100BF000D1808046ED1AA3B2B5FBF2F002FB10558E
:100C000043EA05440CFB00FCA44507D9E41900F1B4
:100C1000FF3302D2A44500F2B8801846A4EB0C04BE
:100C200040EA08409DE731463046BDE8F087CEF106
:100C3000200405FA0EF307FA0EF720FA04F83A0C2E
:100C400025FA04F448EA0308B4FBF2F14FEA184528
:100C500002FB11441FFA87FC45EA044501FB0CF333
:100C6000AB4200FA0EF409D9ED1901F1FF3080F022
:100C70008A80AB4240F2878002393D44EB1A1FFA6A
:100C800088F5B3FBF2F002FB103345EA034500FBA5
:100C90000CF3AB4207D9ED1900F1FF386FD2AB422C
:100CA0006DD902383D44EB1A40EA01418FE7C1F1AA
:100CB000200722FA07F88B4005FA01F448EA0303FB
:100CC00020FA07FE4FEA134CFD404EEA040EB5FB36
:100CD000FCF94FEA1E440CFB19551FFA83F844EA4D
:100CE000054509FB08F4AC4202FA01F200FA01FAE8
:100CF00008D9ED1809F1FF3043D2AC4241D9A9F12E
:100D000002091D442D1B1FFA8EFEB5FBFCF00CFBE7
:100D100010554EEA054400FB08F8A04507D9E41831
:100D200000F1FF3529D2A04527D902381C4440EAFA
:100D30000940A4EB0804A0FB02894C45C6464D4679
:100D400015D312D056B1BAEB0E0364EB050404FAC6
:100D500007F7CB401F43CC40376074600021BDE8EB
:100D6000F0871846F8E69046E0E6C245EAD2B8EBCE
:100D7000020E69EB03050138E4E72846D7E7404651
:100D800091E78146BEE7014678E702383C4445E7F3
:100D9000084608E7A8F102083D442BE7704700BF6A
:100DA000034613F8012B002AFBD1181A01387047AB
:100DB00001F0FF01102A2BDB10F0070F08D010F80C
:100DC000013B013A8B422DD010F0070F42B3F6D110
:100DD000F0B441EA012141EA014122F007047FF029
:100DE00000070023F0E80256083C85EA010586EA80
:100DF000010685FA47F5A3FA87F586FA47F6A5FABC
:100E000087F68EB9EED1F0BC01F0FF0102F00702C7
:100E100032B110F8013B013A83EA010313B1F8D172
:100E20000020704701387047002D06BF3546033853
:100E3000073815F0010F07D1013015F4807F02BF8C
:100E4000013015F4C03F0130F0BC0138704700BFDD
:100E500008B503F045FF08B9012008BD002008BD12
:100E600008B503F074FF08B9012008BD002008BDD3
:100E700008B501230A460F21FFF7F2FF034600B130
:100E80000123184608BD30B583B004460D46012342
:100E90000DF107022321FFF7E3FF034610B91846BF
:100EA00003B030BD9DF8071001F07F01294302AA6D
:100EB00002F8011D012323212046FFF7C9FF034645
:100EC0000028ECD00123EAE730B583B004460D4694
:100ED00001230DF107022321FFF7C2FF034610B9DA
:100EE000184603B030BD9DF8071001F0CF0129432B
:100EF00002AA02F8011D012323212046FFF7A8FFC3
:100F000003460028ECD00123EAE710B50C46012384
:100F10000A462321FFF7A4FF034620B1237803F0FC
:100F2000300323700123184610BD08B506230A4676
:100F30002821FFF795FF034600B10123184608BD9D
:100F400030B583B004460D4601230DF10702202180
:100F5000FFF786FF034610B9184603B030BD9DF871
:100F6000071001F00F01294302AA02F8011D012315
:100F700020212046FFF76CFF03460028ECD0012318
:100F8000EAE710B50C4601230A462021FFF768FF67
:100F9000034620B1237823F00F0323700123184662
:100FA00010BD30B583B004460D4601230DF1070294
:100FB0002021FFF755FF034610B9184603B030BD96
:100FC0009DF8071001F0FE01294302AA02F8011D55
:100FD000012320212046FFF73BFF03460028ECD0E9
:100FE0000123EAE710B50C4601230A462021FFF74A
:100FF00037FF034620B1237803F001032370012358
:10100000184610BD30B583B004460D4601230DF1DE
:1010100007022021FFF724FF034610B9184603B04A
:1010200030BD9DF8071001F0FD01294302AA02F826
:10103000011D012320212046FFF70AFF0346002857
:10104000ECD00123EAE710B50C4601230A46202123
:10105000FFF706FF034620B1237803F00203237055
:101060000123184610BD30B583B004460D46012358
:101070000DF107022021FFF7F3FE034610B91846D1
:1010800003B030BD9DF8071001F0FB01294302AA0F
:1010900002F8011D012320212046FFF7D9FE034657
:1010A0000028ECD00123EAE710B50C4601230A46DC
:1010B0002021FFF7D5FE034620B1237803F0040377
:1010C00023700123184610BD10B50C4601230A46B3
:1010D0002021FFF7C5FE034620B1237803F0080363
:1010E00023700123184610BD10B50C4601230A4693
:1010F0002321FFF7B5FE034620B1237803F0080350
:1011000023700123184610BD2DE9F04D84B004462C
:101110000D460DF10601FFF7E7FF0DF1070120462F
:10112000FFF7D2FF9DF80730082B0BD013B99DF8BD
:1011300006209AB1002B78D19DF80630082B09D0F3
:10114000002069E09DF80620002AEFD108274FF023
:10115000020806E004274FF0000802E006274FF0DF
:1011600001080DF105012046FFF7CFFE9DF805307F
:10117000202B54D0302B54D0102B54D0002602A951
:101180002046FFF7D2FEBDF9080038414FEAE07B68
:10119000274A06EB880302EBC30152F833404E683E
:1011A00000FB06F304FB0B33A0FB040119444FF4CE
:1011B0007A72002310F5FA7041F10001FFF718FC74
:1011C0002860BDF90A003841C31704FB03F300FB94
:1011D0000633A4FB000119444FF47A72002310F582
:1011E000FA7041F10001FFF703FC6860BDF90C00E3
:1011F0003841C31704FB03F300FB0636A4FB0001D0
:1012000031444FF47A72002310F5FA7041F1000175
:10121000FFF7EEFBA860012004B0BDE8F08D0226C8
:10122000ADE70326ABE70126A9E70020F4E700BFFE
:1012300078AC000810B50C4601230A462721FFF7B9
:101240000FFE034620B1237803F00103237001232E
:10125000184610BD30B583B004460D4601230DF18C
:1012600007022E21FFF7FCFD034610B9184603B014
:1012700030BD9DF8071001F03F01294302AA02F892
:10128000011D01232E212046FFF7E2FD0346002821
:10129000ECD00123EAE7000083681B68042919D811
:1012A000DFE801F003080C1014004FF07E525A6082
:1012B00000207047084A5A6000207047074A5A6069
:1012C00000207047064A5A6000207047054A5A605D
:1012D0000020704701207047000020410000C841F5
:1012E000000048420000C84283681B68F7EE007A9D
:1012F000B4EEE70AF1EE10FA27D9F2EE047AB4EE72
:10130000E70AF1EE10FA23D9F3EE097AB4EEE70A10
:10131000F1EE10FA20D9DFED137AB4EEE70AF1EE20
:1013200010FA1BD9DFED107AB4EEE70AF1EE10FAED
:1013300016D9DFED0E7AB4EEE70AF1EE10FA01D914
:101340000B4A06E017EE902A03E04FF07E5200E0D1
:10135000084A5A6000207047074AFAE7074AF8E748
:10136000074AF6E7000048420000C8420000484330
:101370000000C843000020410000C841000048426E
:101380000000C84210B582B00C460DF10701FFF70E
:1013900051FF50B19DF8073023B1012B08D12370C4
:1013A000002003E00020207000E0012002B010BD0A
:1013B0000120FBE710B582B002AC04F8012D012337
:1013C0002246FFF745FD10B1002002B010BD0120FC
:1013D000FBE708B50123FFF743FD08B1002008BD76
:1013E000012008BD38B505460C460978012914BF0F
:1013F00000210121FFF7D5FDB8B16378012B0ED094
:1014000000212846FFF7FEFD88B1A378012B08D004
:1014100000212846FFF727FE28B1002038BD022111
:10142000EFE70421F5E7012038BD012038BD012098
:1014300038BD30B583B004460D460DF10701FFF706
:10144000D1FD10B9012003B030BD0DF106012046D9
:10145000FFF7F9FD08B90120F5E70DF10501204678
:10146000FFF722FEB0B19DF80730012B14BF002317
:1014700001232B709DF80630022B14BF002301239B
:101480006B709DF80530042B14BF00230123AB7053
:101490000020D8E70120D6E708B5F0EE007AB4EED8
:1014A000E70AF1EE10FA0FD9F1EE007AB4EEE70A8E
:1014B000F1EE10FA0ED9F2EE007AB4EEE70AF1EE90
:1014C00010FA09D8202100E00021FFF7FDFC28B127
:1014D000002008BD1021F8E73021F6E7012008BD03
:1014E00002290BD0042902D011B10120704720211C
:1014F00008B5FFF7E9FC18B1002008BD1021F7E797
:10150000012008BD10B582B00C460DF10701FFF7B0
:10151000FCFC08B39DF80730102B0FD008D9202B06
:1015200011D0302B14D14FF083432360002014E0FE
:1015300073B94FF08043236000200EE04FF08143E9
:101540002360002009E04FF082432360002004E084
:10155000034B2360012000E0012002B010BD00BF5A
:10156000000080BF10B582B00C460DF10701FFF7F7
:10157000CCFCE8B19DF80730102B0DD007D9202BFB
:101580000ED0302B10D10C4B2360002011E05BB942
:101590000A4B236000200CE0094B2360002008E088
:1015A000084B2360002004E0074B2360012000E08B
:1015B000012002B010BD00BF9A993B429A99794030
:1015C000713DFA407B147A41000080BF10B582B0B3
:1015D0000C460DF10701FFF798FCE8B19DF80730C4
:1015E000102B0DD007D9202B0ED0302B10D10C4B47
:1015F0002360002011E05BB90A4B236000200CE05F
:10160000094B2360002008E0084B2360002004E021
:10161000074B2360012000E0012002B010BD00BF95
:101620007B943B437B147A417B14FA417B147A42CE
:10163000000080BF10B582B00C460DF10701FFF726
:1016400064FCE8B19DF80730102B0DD007D9202B92
:101650000ED0302B10D10C4B2360002011E05BB971
:101660000A4B236000200CE0094B2360002008E0B7
:10167000084B2360002004E0074B2360012000E0BA
:10168000012002B010BD00BF1F853B4148E17A3FF9
:101690009A99F93F9A997940000080BF08B5F7EE12
:1016A000007AB4EEE70AF1EE10FA24D9F2EE047AE9
:1016B000B4EEE70AF1EE10FA1FD9F3EE097AB4EEB0
:1016C000E70AF1EE10FA1ED9DFED147AB4EEE70A5C
:1016D000F1EE10FA19D9DFED127AB4EEE70AF1EE65
:1016E00010FA14D9DFED0F7AB4EEE70AF1EE10FA32
:1016F0000FD8602102E0102100E02021FFF720FC3C
:1017000048B1002008BD3021F8E74021F6E750211C
:10171000F4E77021F2E7012008BD00BF0000484255
:101720000000C8420000484308B58379012B05D06A
:10173000FFF7DAFD012808D0002008BDFFF7AEFF53
:10174000012801D0002008BD08BD08BD83681A68C3
:101750008379012B0BD010B5044692ED010AFFF7F7
:101760009DFF012805D00123A371002010BD00209A
:10177000704710BD08B5042914D8DFE801F0030B49
:1017800005070900102106E0302104E0402102E0B5
:10179000502100E02021FFF7D3FB08B1002008BD55
:1017A000012008BD012008BD08B58379012B05D0B3
:1017B000FFF772FD012808D0002008BDFFF7DAFF0F
:1017C000012801D0002008BD08BD08BD10B582B0B9
:1017D0000C460DF10701FFF7D4FB002837D09DF828
:1017E0000730302B27D00AD9502B28D010D9602BA6
:1017F00029D0702B08D1174B2360002028E0102B34
:1018000010D0202B13D04BB1134B236001201FE0CD
:10181000402BF9D1114B2360002019E000232360F5
:10182000002015E04FF07E532360002010E00C4BA9
:10183000236000200CE00B4B2360002008E00A4BE3
:101840002360002004E0094B2360002000E0012019
:1018500002B010BD0000C843000080BF0000484235
:10186000000020410000C8410000C8420000484379
:101870008368196883790BB90020704710B5044656
:101880000431FFF7A3FF012808D000212046FFF70D
:1018900057FB10B10020A07110BD012010BD30B564
:1018A00083B004460D460DF10701FFF70DFC10B99A
:1018B000012003B030BD0DF106012046FFF714FCF6
:1018C00008B39DF8073013B99DF8062042B1082BE4
:1018D0000BD0D3B99DF80630082B0FD00120E8E7D4
:1018E00029462046FFF73EFEE3E79DF80620002A42
:1018F000EFD129462046FFF769FEDAE72946204660
:10190000FFF798FED5E70120D3E70120D1E770B5B6
:1019100084B004460D460DF10601FFF7E5FB10B952
:10192000012004B070BD0DF107012046FFF7CCFB8C
:1019300058B39DF80730082B0AD013B99DF806203C
:1019400072B123BB9DF80630082B07D00120E8E7D1
:101950009DF80620002AF0D1082602E0042600E0C7
:10196000062602A92046FFF7E0FA90B1BDF908303B
:1019700033412B80BDF90A3033416B80BDF90C3007
:1019800043FA06F6AE800020CBE70120C9E701202C
:10199000C7E70120C5E710B582B00C466946FFF7DE
:1019A000B6FF012809D0BDF900302380BDF902300F
:1019B0006380BDF90430A380002002B010BD10B5D3
:1019C00084B00C4601A9FFF79FFB40B1019B236047
:1019D000029B6360039BA360002004B010BD012044
:1019E000FBE708B5FFF744FA08B1002008BD012065
:1019F00008BD10B582B0044602A9002301F8013DDC
:101A0000FFF7EFFF012805D022789DF807309A42B2
:101A100002D0012002B010BD0020FBE770B50446E3
:101A200083681D682E68FFF7E4FF012809D020466F
:101A3000FFF71EFF012804D000236B6000203070E8
:101A4000607170BD70B582B004461B4B1B68ADF869
:101A500004301B0C8DF8063083681D682E68FFF774
:101A6000C8FF012805D080212046FFF70CFA10B9E5
:101A7000012002B070BD00212046FFF7EBFB08B942
:101A80000120F6E70D4B6B6000212046FFF758FA66
:101A900008B90120EDE700212046FFF721FD0128CC
:101AA000E7D001A92046FFF79DFC0128E1D00123E2
:101AB000337063710020DCE7D8AC00080000C84236
:101AC00008B503F044F908B9012008BD002008BD9D
:101AD00008B503F005F908B9012008BD002008BDCC
:101AE00008B501230A460F21FFF7EAFF034600B1BC
:101AF0000123184608BD30B583B004460D460123C6
:101B00000DF107021221FFF7DBFF034610B918465B
:101B100003B030BD9DF8071001F0BF01294302AAB0
:101B200002F8011D012312212046FFF7D1FF0346D1
:101B30000028ECD00123EAE730B583B004460D4617
:101B400001230DF107021021FFF7BAFF034610B978
:101B5000184603B030BD9DF8071001F0F30129438A
:101B600002AA02F8011D012310212046FFF7B0FF51
:101B700003460028ECD00123EAE710B50C46012308
:101B80000A461021FFF79CFF034620B1237803F09B
:101B90000C0323700123184610BD2DE9F0410746C0
:101BA0000E460024254601E00135EDB2022D15D880
:101BB0004FF00008B8F1010FF6D804F12801012315
:101BC0003219C9B23846FFF77BFF034638B10134FA
:101BD000E4B208F101035FFA83F8EBE7012318464A
:101BE000BDE8F08130B583B004460D4601230DF108
:101BF00007021021FFF764FF034610B9184603B02F
:101C000030BD9DF8071001F00F01294302AA02F828
:101C1000011D012310212046FFF75AFF034600282B
:101C2000ECD00123EAE710B50C4601230A46102147
:101C3000FFF746FF034620B1237823F00F032370FC
:101C40000123184610BD30B583B004460D4601236C
:101C50000DF107021121FFF733FF034610B91846B3
:101C600003B030BD9DF8071001F0F301294302AA2B
:101C700002F8011D012311212046FFF729FF034629
:101C80000028ECD00123EAE710B50C4601230A46F0
:101C90001121FFF715FF034620B1237803F00C0351
:101CA00023700123184610BD2DE9F04107460E466A
:101CB0000024254601E00135EDB2022D15D84FF084
:101CC0000008B8F1010FF6D804F1220101233219FE
:101CD000C9B23846FFF7F4FE034638B10134E4B226
:101CE00008F101035FFA83F8EBE701231846BDE82A
:101CF000F08130B583B004460D4601230DF1070293
:101D00001121FFF7DDFE034610B9184603B030BDC0
:101D10009DF8071001F00F01294302AA02F8011DE6
:101D2000012311212046FFF7D3FE03460028ECD003
:101D30000123EAE710B50C4601230A461121FFF7FB
:101D4000BFFE034620B1237823F00F032370012345
:101D5000184610BD30B583B004460D4601230DF181
:101D600007021121FFF7ACFE034610B9184603B075
:101D700030BD9DF8071001F0FD01294302AA02F8C9
:101D8000011D012311212046FFF7A2FE0346002872
:101D9000ECD00123EAE710B50C4601230A461121D5
:101DA000FFF78EFE034620B1237803F00203237071
:101DB0000123184610BD30B583B004460D460123FB
:101DC0000DF107021946FFF77BFE034610B91846CE
:101DD00003B030BD9DF8071001F07F01294302AA2E
:101DE00002F8011D012319462046FFF771FE034644
:101DF0000028ECD00123EAE770B582B00546CEB2E8
:101E00000C0A01230DF107020621FFF759FE0346D4
:101E100010B9184602B070BD02AA02F8016D012384
:101E200006212846FFF754FE03460028F1D004F0AF
:101E3000070401230DF1070207212846FFF740FEA2
:101E400003460028E5D09DF8073003F0F8031C4353
:101E500002AA02F8014D012307212846FFF738FEA8
:101E600003460028D5D00123D3E730B583B004461C
:101E70000D4601230DF107020821FFF721FE03465D
:101E800010B9184603B030BD9DF8071001F0F801F5
:101E9000294302AA02F8011D012308212046FFF769
:101EA00017FE03460028ECD00123EAE730B583B0E3
:101EB00004460D4601230DF107020821FFF700FE3D
:101EC000034610B9184603B030BD9DF8071001F065
:101ED000C701294302AA02F8011D01230821204657
:101EE000FFF7F6FD03460028ECD00123EAE730B502
:101EF00083B004460D4601230DF107020921FFF7C7
:101F0000DFFD034610B9184603B030BD9DF8071039
:101F100001F07F01294302AA02F8011D01230921D2
:101F20002046FFF7D5FD03460028ECD00123EAE761
:101F300030B583B004460D4601230DF107020A2196
:101F4000FFF7BEFD034610B9184603B030BD9DF83B
:101F5000071001F0F801294302AA02F8011D01232C
:101F60000A212046FFF7B4FD03460028ECD00123E8
:101F7000EAE730B583B004460D4601230DF10702B0
:101F80000A21FFF79DFD034610B9184603B030BD86
:101F90009DF8071001F08701294302AA02F8011DEC
:101FA00001230A212046FFF793FD03460028ECD0C9
:101FB0000123EAE730B583B004460D4601230DF155
:101FC00007020D21FFF77CFD034610B9184603B048
:101FD00030BD9DF8071001F0DF01294302AA02F885
:101FE000011D01230D212046FFF772FD0346002845
:101FF000ECD00123EAE730B583B004460D46012357
:102000000DF107020D21FFF75BFD034610B91846DD
:1020100003B030BD9DF8071001F07F01294302AAEB
:1020200002F8011D01230D212046FFF751FD034653
:102030000028ECD00123EAE730B583B004460D4612
:1020400001230DF107021221FFF73AFD034610B9F3
:10205000184603B030BD9DF8071001F0FB0129437D
:1020600002AA02F8011D012312212046FFF730FDCC
:1020700003460028ECD00123EAE730B583B00446DC
:102080000D4601230DF107021421FFF719FD034648
:1020900010B9184603B030BD9DF8071001F0FC01DF
:1020A000294302AA02F8011D012314212046FFF74B
:1020B0000FFD03460028ECD00123EAE730B583B0DA
:1020C00004460D4601230DF107021421FFF7F8FC29
:1020D000034610B9184603B030BD9DF8071001F053
:1020E000F301294302AA02F8011D0123142120460D
:1020F000FFF7EEFC03460028ECD00123EAE730B5F9
:1021000083B004460D4601230DF107021921FFF7A4
:10211000D7FC034610B9184603B030BD9DF8071030
:1021200001F0FD01294302AA02F8011D0123192132
:102130002046FFF7CDFC03460028ECD00123EAE758
:1021400030B583B004460D4601230DF10702192175
:10215000FFF7B6FC034610B9184603B030BD9DF832
:10216000071001F0F701294302AA02F8011D01231B
:1021700019212046FFF7ACFC03460028ECD00123D0
:10218000EAE730B583B004460D4601230DF107029E
:102190001921FFF795FC034610B9184603B030BD6E
:1021A0009DF8071001F0EF01294302AA02F8011D72
:1021B000012319212046FFF78BFC03460028ECD0B1
:1021C0000123EAE730B583B004460D4601230DF143
:1021D00007021921FFF774FC034610B9184603B033
:1021E00030BD9DF8071001F0FB01294302AA02F857
:1021F000011D012319212046FFF76AFC0346002830
:10220000ECD00123EAE710B50C4601230A461B2156
:10221000FFF756FC034620B1237803F00803237030
:102220000123184610BD10B50C4601230A461B2198
:10223000FFF746FC034620B1237803F02003237008
:102240000123184610BD10B50C4601230A461C2177
:10225000FFF736FC034620B1237803F01003237008
:102260000123184610BD10B50C4601230A461C2157
:10227000FFF726FC034620B1237803F020032370E8
:102280000123184610BD10B50C4601230A461D2136
:10229000FFF716FC034620B1237803F001032370F7
:1022A0000123184610BD10B50C4601230A461D2116
:1022B000FFF706FC034620B1237803F002032370E6
:1022C0000123184610BD10B50C4601230A461D21F6
:1022D000FFF7F6FB034620B1237803F004032370D5
:1022E0000123184610BD10B50C4601230A461D21D6
:1022F000FFF7E6FB034620B1237803F008032370C1
:102300000123184610BD10B50C4601230A461D21B5
:10231000FFF7D6FB034620B1237803F010032370A8
:102320000123184610BD10B50C4601230A461D2195
:10233000FFF7C6FB034620B1237803F02003237088
:102340000123184610BD10B50C4601230A461D2175
:10235000FFF7B6FB034620B1237803F04003237058
:102360000123184610BD10B50C4601230A461E2154
:10237000FFF7A6FB034620B1237803F00103237087
:102380000123184610BD10B50C4601230A461E2134
:10239000FFF796FB034620B1237803F00203237076
:1023A0000123184610BD30B583B004460D46012305
:1023B0000DF106023A21FFF783FB034610B91846D8
:1023C00003B030BD01230DF107023B212046FFF78A
:1023D00077FB03460028F2D09DF8073003F00F0288
:1023E0009DF8063043EA02232B800123E7E710B56E
:1023F0000C4601230A463B21FFF762FB034620B14E
:10240000237803F0100323700123184610BD10B584
:102410000C4601230A463B21FFF752FB034620B13D
:10242000237803F0200323700123184610BD10B554
:102430000C4601230A463B21FFF742FB034620B12D
:10244000237803F0400323700123184610BD30B5F4
:1024500083B004460D4601230DF106023C21FFF72F
:102460002FFB034610B9184603B030BD01230DF110
:1024700007023D212046FFF723FB03460028F2D048
:102480009DF8073003F003029DF8063043EA02236B
:102490002B800123E7E710B50C4601230A465321A0
:1024A000FFF70EFB034620B1237803F010032370DF
:1024B0000123184610BD10B50C4601230A465321CE
:1024C000FFF7FEFA034620B1237803F020032370C0
:1024D0000123184610BD30B583B004460D460123D4
:1024E0000DF107025821FFF7EBFA034610B9184621
:1024F00003B030BD9DF8071001F0FE01294302AA88
:1025000002F8011D012358212046FFF7E1FA034696
:102510000028ECD00123EAE730B583B004460D462D
:1025200001230DF107025821FFF7CAFA034610B93B
:10253000184603B030BD9DF8071001F0FD01294396
:1025400002AA02F8011D012358212046FFF7C0FA14
:1025500003460028ECD00123EAE730B583B00446F7
:102560000D4601230DF107025821FFF7A9FA034692
:1025700010B9184603B030BD9DF8071001F0FB01FB
:10258000294302AA02F8011D012358212046FFF722
:102590009FFA03460028ECD00123EAE730B583B068
:1025A00004460D4601230DF107025821FFF788FA72
:1025B000034610B9184603B030BD9DF8071001F06E
:1025C000F701294302AA02F8011D012358212046E0
:1025D000FFF77EFA03460028ECD00123EAE730B586
:1025E00083B004460D4601230DF107025821FFF781
:1025F00067FA034610B9184603B030BD9DF80710BE
:1026000001F07F01294302AA02F8011D012358218C
:102610002046FFF75DFA03460028ECD00123EAE7E5
:1026200030B583B0054601F01F0401230DF1070208
:102630005921FFF745FA034610B9184603B030BDDB
:102640009DF8073003F0E0031C4302AA02F8014D95
:10265000012359212846FFF73BFA03460028ECD016
:102660000123EAE730B583B004460D4601230DF19E
:1026700007025921FFF724FA034610B9184603B0A0
:1026800030BD9DF8071001F09F01294302AA02F80E
:10269000011D012359212046FFF71AFA034600289D
:1026A000ECD00123EAE730B583B0054601F003041E
:1026B00001230DF107025A21FFF702FA034610B970
:1026C000184603B030BD9DF8073003F0FC031C43EF
:1026D00002AA02F8014D01235A212846FFF7F8F912
:1026E00003460028ECD00123EAE730B583B0054665
:1026F000890001F00C0401230DF107025A21FFF7B4
:10270000DFF9034610B9184603B030BD9DF8071035
:1027100001F0F301214302AA02F8011D01235A210D
:102720002846FFF7D5F903460028ECD00123EAE755
:1027300030B583B005460901CCB201230DF1070283
:102740005A21FFF7BDF9034610B9184603B030BD52
:102750009DF8071001F00F01214302AA02F8011DA4
:1027600001235A212846FFF7B3F903460028ECD08D
:102770000123EAE730B583B0054601F03F040123A9
:102780000DF107025B21FFF79BF9034610B91846CC
:1027900003B030BD9DF8073003F0C0031C4302AA0C
:1027A00002F8014D01235B212846FFF791F903460A
:1027B0000028ECD00123EAE730B583B004460D468B
:1027C00001230DF107025B21FFF77AF9034610B9E7
:1027D000184603B030BD9DF8071001F07F01294372
:1027E00002AA02F8011D01235B212046FFF770F9C0
:1027F00003460028ECD00123EAE730B583B0054654
:1028000001F00F0401230DF107025C21FFF758F9D5
:10281000034610B9184603B030BD9DF8073003F0E9
:10282000F0031C4302AA02F8014D01235C21284653
:10283000FFF74EF903460028ECD00123EAE730B554
:1028400083B004460D4601230DF107025C21FFF71A
:1028500037F9034610B9184603B030BD9DF807108C
:1028600001F0EF01294302AA02F8011D01235C21B6
:102870002046FFF72DF903460028ECD00123EAE7B4
:1028800030B583B00546490101F0600401230DF124
:1028900007025C21FFF714F9034610B9184603B08C
:1028A00030BD9DF8071001F09F01214302AA02F8F4
:1028B000011D01235C212846FFF70AF90346002881
:1028C000ECD00123EAE730B583B004460D4601237E
:1028D0000DF107025D21FFF7F3F8034610B9184622
:1028E00003B030BD9DF8071001F0F801294302AA9A
:1028F00002F8011D01235D212046FFF7E9F8034698
:102900000028ECD00123EAE770B582B006464D09F5
:10291000C900CCB201230DF107025D21FFF7D0F809
:10292000034610B9184602B070BD9DF8071001F0BB
:102930000701214302AA02F8011D01235D2130464F
:10294000FFF7C6F803460028ECD0ED01EDB20123F5
:102950000DF107025C213046FFF7B2F8034600286C
:10296000E0D09DF8073003F07F031D4302AA02F870
:10297000015D01235C213046FFF7AAF803460028D9
:10298000D0D00123CEE730B583B004460D460123F5
:102990000DF107025E21FFF793F8034610B91846C0
:1029A00003B030BD9DF8071001F0FD01294302AAD4
:1029B00002F8011D01235E212046FFF789F8034636
:1029C0000028ECD00123EAE730B583B004460D4679
:1029D00001230DF107025E21FFF772F8034610B9DB
:1029E000184603B030BD9DF8071001F0FB012943E4
:1029F00002AA02F8011D01235E212046FFF768F8B4
:102A000003460028ECD00123EAE730B583B0044642
:102A10000D4601230DF107025E21FFF751F8034631
:102A200010B9184603B030BD9DF8071001F0F7014A
:102A3000294302AA02F8011D01235E212046FFF767
:102A400047F803460028ECD00123EAE730B583B00D
:102A500004460D4601230DF107025E21FFF730F811
:102A6000034610B9184603B030BD9DF8071001F0B9
:102A7000EF01294302AA02F8011D01235E2120462D
:102A8000FFF726F803460028ECD00123EAE730B52B
:102A900083B004460D4601230DF107025E21FFF7C6
:102AA0000FF8034610B9184603B030BD9DF8071063
:102AB00001F0DF01294302AA02F8011D01235E2172
:102AC0002046FFF705F803460028ECD00123EAE78B
:102AD00030B583B004460D4601230DF107025E2197
:102AE000FEF7EEFF034610B9184603B030BD9DF85F
:102AF000071001F0BF01294302AA02F8011D0123BA
:102B00005E212046FEF7E4FF03460028ECD00123B7
:102B1000EAE730B583B004460D4601230DF1070204
:102B20005F21FEF7CDFF034610B9184603B030BD54
:102B30009DF8071001F0FD01294302AA02F8011DCA
:102B400001235F212046FEF7C3FF03460028ECD097
:102B50000123EAE730B583B004460D4601230DF1A9
:102B600007025F21FEF7ACFF034610B9184603B019
:102B700030BD9DF8071001F0FB01294302AA02F8BD
:102B8000011D01235F212046FEF7A2FF0346002816
:102B9000ECD00123EAE730B583B004460D460123AB
:102BA0000DF107025F21FEF78BFF034610B91846AF
:102BB00003B030BD9DF8071001F0F701294302AAC8
:102BC00002F8011D01235F212046FEF781FF034625
:102BD0000028ECD00123EAE730B583B004460D4667
:102BE00001230DF107025F21FEF76AFF034610B9CA
:102BF000184603B030BD9DF8071001F0EF012943DE
:102C000002AA02F8011D01235F212046FEF760FFA2
:102C100003460028ECD00123EAE730B583B0044630
:102C20000D4601230DF107025F21FEF749FF034620
:102C300010B9184603B030BD9DF8071001F0DF0150
:102C4000294302AA02F8011D01235F212046FEF755
:102C50003FFF03460028ECD00123EAE730B583B0FC
:102C600004460D4601230DF107025F21FEF728FF00
:102C7000034610B9184603B030BD9DF8071001F0A7
:102C8000BF01294302AA02F8011D01235F2120464A
:102C9000FEF71EFF03460028ECD00123EAE72DE9EA
:102CA000F04180460F46002426461EB101231846F7
:102CB000BDE8F0813546012D0FD804F13E01012316
:102CC0003A19C9B24046FEF7FBFE03460028EED093
:102CD0000134E4B20135EDB2EDE70136F6B2E4E7D6
:102CE0002DE9F04180460F46002426461EB10123FF
:102CF0001846BDE8F0813546012D0FD804F14B018F
:102D000001233A19C9B24046FEF7DAFE034600280D
:102D1000EED00134E4B20135EDB2EDE70136F6B2A2
:102D2000E4E730B583B005460C468021FFF743F851
:102D300001230DF107020F212846FEF7C1FE9DF881
:102D4000073003F0E00304F01F041C438DF8074034
:102D500001230DF107020F212846FEF7B9FE0021DD
:102D60002846FFF728F8012003B030BD83681B68B0
:102D7000042918D8DFE801F003070B0F13000B4AF2
:102D80005A6000207047094A5A6000207047084A7C
:102D90005A6000207047074A5A6000207047064A70
:102DA0005A60002070470120704700BF000050416A
:102DB0000000D041000050420000D04283681B68F0
:102DC000F2EE0A7AB4EEE70AF1EE10FA3CD9F3EE2D
:102DD0000A7AB4EEE70AF1EE10FA39D9DFED237A78
:102DE000B4EEE70AF1EE10FA34D9DFED217AB4EE51
:102DF000E70AF1EE10FA2FD9DFED1E7AB4EEE70AFA
:102E0000F1EE10FA2AD9DFED1C7AB4EEE70AF1EE02
:102E100010FA25D9DFED197AB4EEE70AF1EE10FACF
:102E200020D9DFED177AB4EEE70AF1EE10FA1BD9DC
:102E3000DFED147AB4EEE70AF1EE10FA01D9124A86
:102E400003E017EE902A00E0104A5A600020704715
:102E50000F4AFAE70F4AF8E70F4AF6E70F4AF4E796
:102E60000F4AF2E70F4AF0E70F4AEEE70000504240
:102E70000000D042000050430000D04300405044C6
:102E80000080CF44002050450020D0450000504134
:102E90000000D041000050420000D04200005043EA
:102EA0000000D043004050440080CF4483681B683A
:102EB000042918D8DFE801F003070B0F13000B4AB1
:102EC0005A6000207047094A5A6000207047084A3B
:102ED0005A6000207047074A5A6000207047064A2F
:102EE0005A60002070470120704700BF0000504129
:102EF0000000D041000050420000D04283681B68AF
:102F0000F2EE0A7AB4EEE70AF1EE10FA3CD9F3EEEB
:102F10000A7AB4EEE70AF1EE10FA39D9DFED237A36
:102F2000B4EEE70AF1EE10FA34D9DFED217AB4EE0F
:102F3000E70AF1EE10FA2FD9DFED1E7AB4EEE70AB8
:102F4000F1EE10FA2AD9DFED1C7AB4EEE70AF1EEC1
:102F500010FA25D9DFED197AB4EEE70AF1EE10FA8E
:102F600020D9DFED177AB4EEE70AF1EE10FA1BD99B
:102F7000DFED147AB4EEE70AF1EE10FA01D9124A45
:102F800003E017EE902A00E0104A5A6000207047D4
:102F90000F4AFAE70F4AF8E70F4AF6E70F4AF4E755
:102FA0000F4AF2E70F4AF0E70F4AEEE700005042FF
:102FB0000000D042000050430000D0430040504485
:102FC0000080CF44002050450020D04500005041F3
:102FD0000000D041000050420000D04200005043A9
:102FE0000000D043004050440080CF44032901D961
:102FF0000120704708B5FFF740F808B1002008BD70
:10300000012008BD012901D90120704708B5FFF74B
:1030100062FA08B1002008BD012008BD08B5FFF71D
:10302000F1FF08BD08B5FFF7EDFF08BD08B50B4679
:1030300019B1802901D0012008BD1946FEF757FFBC
:1030400008B1002008BD012008BD08B5FEF7D4FE78
:1030500008B1002008BD012008BD08B50B4619B114
:10306000202901D0012008BD1946FEF7A3FF08B1B1
:10307000002008BD012008BD08B506290CD8DFE8EE
:1030800001F004040B04040B0400FEF751FF08B127
:10309000002008BD012008BD012008BD10B582B088
:1030A0000C460DF10701FEF768FD00B39DF80730EF
:1030B0000C2B18D8DFE803F007171717131717178B
:1030C0000B1717170F000B4B2360002010E00A4B63
:1030D000236000200CE0094B2360002008E0084B2F
:1030E0002360002004E0074B2360012000E0012062
:1030F00002B010BD23DB793D23DBF93D23DB793EB4
:1031000023DBF93E000080BF10B582B00C460DF104
:103110000701FEF732FD20B39DF807300C2B1CD8B9
:10312000DFE803F0071B1B1B161B1B1B0C1B1B1BC9
:1031300011004FF080432360002013E04FF08143E3
:10314000236000200EE04FF082432360002009E05E
:103150004FF083432360002004E0034B23600120F1
:1031600000E0012002B010BD000080BF072901D996
:103170000120704708B5FEF778FE08B1002008BDB1
:10318000012008BD08B5FFF70EF908B1002008BD01
:10319000012008BD08B5FFF782FD08B1002008BD79
:1031A000012008BD70B582B006460D46002300938D
:1031B00001A9FFF7EFFF012819D09DF805301B0288
:1031C0001BB29DF804401C4369463046FFF766FF7A
:1031D00001280CD007EE904AF8EEE77A9DED007AD0
:1031E00067EE877AFDEEE77AC5ED007A002002B03F
:1031F00070BD08B5FFF72BF908B1002008BD01200C
:1032000008BD10B582B00C460DF10701FFF70FF9AC
:1032100068B19DF807301BB1402B04D0012007E0B6
:103220000020207004E001232370002000E0012032
:1032300002B010BD10B582B00C460DF10701FFF7CA
:10324000D6F868B19DF807301BB1102B04D00120CF
:1032500007E00020207004E001232370002000E03C
:10326000012002B010BD10B582B00C460DF107016F
:10327000FFF7CDF868B19DF807301BB1202B04D0C3
:10328000012007E00020207004E0012323700020CB
:1032900000E0012002B010BD08B5F2EE047AB4EEF1
:1032A000E70AF1EE10FA39D9F3EE097AB4EEE70A3B
:1032B000F1EE10FA38D9DFED257AB4EEE70AF1EE37
:1032C00010FA33D9DFED227AB4EEE70AF1EE10FA04
:1032D0002ED9DFED207AB4EEE70AF1EE10FA29D903
:1032E000DFED1D7AB4EEE70AF1EE10FA24D9DFED36
:1032F0001B7AB4EEE70AF1EE10FA1FD9DFED187A67
:10330000B4EEE70AF1EE10FA1AD9DFED167AB4EE50
:10331000E70AF1EE10FA15D8482100E00821FEF77F
:1033200028FE88B1002008BD1021F8E71821F6E733
:103330002021F4E72821F2E73021F0E73821EEE7F9
:103340004021ECE75021EAE7012008BD0000484297
:103350000000C842000048430000C8430000484441
:103360000000C84400404E4508B50123FEF7A8FB05
:1033700008B1002008BD012008BD08B5FFF7F4FF23
:10338000012800D0002008BD30B583B004460D46AA
:1033900000238DF807308DF806308DF805308DF854
:1033A00004308DF803308DF802308DF801300B6059
:1033B0000DF107021B21FFF7E0FF012800F0AA80B2
:1033C0000DF106021C212046FFF7D7FF012800F06F
:1033D000A1800DF105021D212046FFF7CEFF012837
:1033E00000F0988001AA53212046FFF7C6FF01286C
:1033F00000F090800DF103025E212046FFF7BDFF33
:10340000012800F087800DF102025F212046FFF7BE
:10341000B4FF01287ED00DF101020D212046FFF7F7
:10342000ACFF012876D09DF8033013F0100F04D1C3
:103430009DF8023013F0100F08D09DF8073013F0FC
:10344000200F03D02B7843F001032B709DF803303D
:1034500013F0200F04D19DF8023013F0200F08D094
:103460009DF8073013F0080F03D02B7843F00803C2
:103470002B709DF8033013F0400F04D19DF80230FB
:1034800013F0400F08D09DF8063013F0200F03D042
:103490002B7843F002032B709DF8033013F0080FD4
:1034A00004D19DF8023013F0080F08D09DF80630C3
:1034B00013F0100F03D02B7843F004032B709DF80A
:1034C000033013F0040F04D19DF8023013F0040F01
:1034D00008D09DF8053013F0400F03D02B7843F04F
:1034E00040032B709DF90130002B15DB9DF8033054
:1034F00013F0020F04D19DF8023013F0020F15D023
:103500009DF8043013F0200F12D02B7843F02003E5
:103510002B70002003B030BD9DF8043013F0100F65
:10352000E4D02B7843F010032B70DFE70020F1E7A5
:103530000020EFE708B5FFF717FF012800D00020B3
:1035400008BD10B582B00C460DF10701FEF7EBFE89
:1035500058B19DF807302BB1202B09D101232370DE
:10356000002003E00020207000E0012002B010BD28
:103570000120FBE710B582B00C460DF10701FEF704
:10358000C2FE58B19DF807302BB1102B09D1012391
:103590002370002003E00020207000E0012002B032
:1035A00010BD0120FBE710B582B00C460DF10701FC
:1035B000FEF799FE58B19DF807302BB1082B09D1C1
:1035C00001232370002003E00020207000E0012090
:1035D00002B010BD0120FBE710B582B00C460DF122
:1035E0000701FEF770FE58B19DF807302BB1042B90
:1035F00009D101232370002003E00020207000E0A7
:10360000012002B010BD0120FBE710B582B00C46CE
:103610000DF10701FEF747FE58B19DF807302BB1B9
:10362000022B09D101232370002003E00020207029
:1036300000E0012002B010BD0120FBE710B582B010
:103640000C460DF10701FEF71EFE50B19DF8073044
:1036500023B1012B08D12370002003E0002020704B
:1036600000E0012002B010BD0120FBE710B582B0E0
:103670000C460DF10701FEF766FE58B19DF80730C4
:103680002BB1402B09D101232370002003E000203F
:10369000207000E0012002B010BD0120FBE710B552
:1036A00004460021FFF790F908B9012010BD002160
:1036B0002046FFF74FFA08B9012010BD002120462F
:1036C000FEF78DFF08B9012010BD00212046FEF74E
:1036D000C9FF08B1002010BD012010BD08B5F0EEF3
:1036E000007AB4EEE70AF1EE10FA0FD9F1EE007AA3
:1036F000B4EEE70AF1EE10FA0ED9F2EE007AB4EE6B
:10370000E70AF1EE10FA09D80C2100E00021FEF7DB
:1037100013FA28B1002008BD0821F8E70421F6E7D4
:10372000012008BD02290BD0042902D011B10120CB
:1037300070470C2108B5FEF7FFF918B1002008BD4D
:103740000821F7E7012008BD08B5F2EE0A7AB4EEC9
:10375000E70AF1EE10FA39D9F3EE0A7AB4EEE70A85
:10376000F1EE10FA38D9DFED257AB4EEE70AF1EE82
:1037700010FA33D9DFED227AB4EEE70AF1EE10FA4F
:103780002ED9DFED207AB4EEE70AF1EE10FA29D94E
:10379000DFED1D7AB4EEE70AF1EE10FA24D9DFED81
:1037A0001B7AB4EEE70AF1EE10FA1FD9DFED187AB2
:1037B000B4EEE70AF1EE10FA1AD9DFED167AB4EE9C
:1037C000E70AF1EE10FA15D8902100E01021FEF77B
:1037D00009FA88B1002008BD2021F8E73021F6E77A
:1037E0004021F4E75021F2E76021F0E77021EEE795
:1037F0008021ECE7A021EAE7012008BD000050424B
:103800000000D042000050430000D043004050442C
:103810000080CF440020504508B58379012B05D0A6
:10382000FFF7CCFA012808D0002008BDFFF78CFF75
:10383000012801D0002008BD08BD08BD38B50446E8
:103840000D469FED190AFFF7E7FF012824D000215C
:103850002046FEF771F908B9012038BD4021204605
:10386000FEF700FF08B9012038BD80212046FEF791
:10387000B6FEA0B11DB1012D08D0012038BD042134
:103880002046FFF7A1F860B9012038BD0421204689
:10389000FFF760F908B1002038BD012038BD0120D4
:1038A00038BD002038BD00BF0000D04383681A68CF
:1038B0008379012B0BD010B5044692ED010AFFF776
:1038C00043FF012805D00123A371002010BD002073
:1038D000704710BD08B5042912D8DFE801F00303D2
:1038E00009050700102104E0302102E0402100E03A
:1038F0002021FEF777F908B1002008BD012008BD9E
:10390000012008BD08B58379012B05D0FFF72EFAF9
:10391000012808D0002008BDFFF7DCFF012801D0F6
:10392000002008BD08BD08BD08B5FEF701FF08B1BD
:10393000002008BD012008BD08B5FEF7D6FE08B17D
:10394000002008BD012008BD08B5FEF7ACFE08B197
:10395000002008BD012008BD08B5FEF761FE08B1D2
:10396000002008BD012008BD10B582B00C460DF145
:103970000701FEF768FC58B19DF807302BB1102BFA
:1039800009D101232370002003E00020207000E013
:10399000012002B010BD0120FBE710B50446002154
:1039A000FFF733F808B9012010BD00212046FFF7CA
:1039B000F2F808B9012010BD00212046FEF70FFEE5
:1039C00008B9012010BD00212046FFF7C5FF0128DE
:1039D0002CD000212046FFF7B7FF012826D0002178
:1039E0002046FFF7A9FF012820D000212046FFF73D
:1039F0009BFF01281AD000212046FEF7DDFE08B902
:103A0000012010BD00212046FEF786FD08B90120E7
:103A100010BD00212046FEF7A0FD08B9012010BD11
:103A200000212046FEF7BAFD08B1002010BD01209C
:103A300010BD000038B504460D469FED2F0AFFF774
:103A4000EBFE012857D000212046FEF775F808B993
:103A5000012038BD08212046FEF7A0FD08B901204D
:103A600038BD04212046FEF778FD08B9012038BD95
:103A700002212046FEF750FD08B9012038BD08217B
:103A80002046FFF769FF012835D003212046FFF7C4
:103A90005BFF01282FD003212046FFF74DFF0128AF
:103AA00029D008212046FFF73FFF012823D080219D
:103AB0002046FEF781FE08B9012038BD802120464E
:103AC000FEF78DFD90B11DB1012D08D0012038BD4C
:103AD00008212046FEF799FF50B9012038BD082182
:103AE0002046FFF758F828B9012038BD012038BD1D
:103AF000002038BD002038BD0000D04310B582B092
:103B00000C460DF10701FEF7AEFB58B19DF80730EA
:103B10002BB1202B09D101232370002003E00020CA
:103B2000207000E0012002B010BD0120FBE710B5BD
:103B300004460021FEF7CCFF08B9012010BD00218A
:103B40002046FFF78BF808B9012010BD0021204660
:103B5000FEF745FD08B9012010BD00212046FFF702
:103B6000FBFE01281FD000212046FFF7EDFE0128B3
:103B700019D000212046FFF7DFFE012813D00021D5
:103B80002046FEF7C9FC08B9012010BD00212046DF
:103B9000FEF7E3FC08B9012010BD00212046FEF726
:103BA000FDFC08B1002010BD012010BD38B5044651
:103BB0000D469FED290AFFF72FFE012844D0002172
:103BC0002046FDF7B9FF08B9012038BD082120467D
:103BD000FEF7E4FC08B9012038BD04212046FEF7B9
:103BE000BCFC08B9012038BD02212046FEF794FC38
:103BF00008B9012038BD08212046FFF7ADFE012895
:103C000022D002212046FFF79FFE01281CD001216F
:103C10002046FFF791FE012816D080212046FEF7AE
:103C2000DEFCA0B11DB1012D08D0012038BD40211E
:103C30002046FEF74DFF60B9012038BD40212046E7
:103C4000FFF70CF808B1002038BD012038BD012075
:103C500038BD002038BD00BF0000D04308B5FEF7D6
:103C600089FD08B1002008BD012008BD10B582B053
:103C70000C460DF10701FEF7C6FA58B19DF8073062
:103C80002BB1082B09D101232370002003E0002071
:103C9000207000E0012002B010BD0120FBE710B54C
:103CA00004460021FEF7F3FE08B9012010BD0021F3
:103CB0002046FEF7B2FF08B9012010BD00212046C2
:103CC000FEF78DFC08B9012010BD00212046FEF74B
:103CD000D7FD08B9012010BD00212046FEF74AFD9E
:103CE00008B1002010BD012010BD000038B5044609
:103CF0000D469FED1C0AFFF78FFD01282BD00021F8
:103D00002046FDF719FF08B9012038BD00212046E3
:103D1000FEF7B6FD08B9012038BD02212046FEF7A6
:103D200029FD08B9012038BD80212046FEF757FC47
:103D3000A0B11DB1012D08D0012038BD20212046A1
:103D4000FEF7A5FE60B9012038BD20212046FEF710
:103D500064FF08B1002038BD012038BD012038BD06
:103D6000002038BD0000D04310B582B00C460DF1E4
:103D70000701FEF7A0FB58B19DF807302BB1202BAF
:103D800009D101232370002003E00020207000E00F
:103D9000012002B010BD0120FBE710B50446002150
:103DA000FEF7F1FD08B9012010BD00212046FEF705
:103DB000B0FE08B9012010BD00212046FEF7C0F971
:103DC00008B9012010BD00212046FEF7FBF908B11B
:103DD000002010BD012010BD38B504460D46B3EEDD
:103DE0000A0AFFF719FD012824D000212046FDF71B
:103DF000A3FE08B9012038BD04212046FEF7E2F9F0
:103E000008B9012038BD08212046FEF799F9A0B174
:103E10001DB1012D08D0012038BD02212046FEF73A
:103E2000B2FD60B9012038BD02212046FEF771FEC7
:103E300008B1002038BD012038BD012038BD002068
:103E400038BD08B5FEF76DFF08B1002008BD0120A0
:103E500008BD08B50021FEF752F908B1002008BDE1
:103E6000012008BD08B50221FEF749F908B100207C
:103E700008BD012008BD08B5FEF732FF08B10020DB
:103E800008BD012008BD10B582B00C460DF1070138
:103E9000FEF701FB58B19DF807302BB1102B09D16B
:103EA00001232370002003E00020207000E00120A7
:103EB00002B010BD0120FBE710B504460021FEF75B
:103EC0009AF808B9012010BD00212046FEF759F9E3
:103ED00008B9012010BD00212046FEF773F908B98A
:103EE000012010BD00212046FFF7ABFF012801D0C3
:103EF000002010BD10BD10B50446B3EE0A0AFFF74E
:103F00008BFC012820D000212046FDF715FE08B9C2
:103F1000012010BD17212046FFF793FF012813D081
:103F200004212046FEF74EF908B9012010BD1021EA
:103F30002046FEF726F908B9012010BD8021204651
:103F4000FEF759F808B1002010BD012010BD08B5DA
:103F5000FEF7B9FC08B1002008BD012008BD10B56E
:103F600082B00C460DF10701FEF75DF958B19DF8DE
:103F700007302BB1202B09D101232370002003E04F
:103F80000020207000E0012002B010BD0120FBE7FE
:103F900010B504460021FEF759FD08B9012010BDF7
:103FA00000212046FEF718FE08B9012010BD0021AF
:103FB0002046FEF714FB08B9012010BD0021204661
:103FC000FEF7A2FC08B9012010BD00212046FEF733
:103FD0007AFC08B1002010BD012010BD38B50446A0
:103FE0000D469FED270AFFF717FC012846D0002158
:103FF0002046FDF7A1FD08B9012038BD0621204665
:10400000FEF782FC08B9012038BD00212046FEF7EA
:1040100037FC08B9012038BD00212046FEF70FFC0F
:1040200008B9012038BD00212046FEF7E6FB08B99B
:10403000012038BD03212046FEF745FC08B90120C8
:1040400038BD80212046FEF7CAFA90B11DB1012D7E
:1040500008D0012038BD10212046FEF7F7FC50B9EA
:10406000012038BD10212046FEF7B6FD28B90120F9
:1040700038BD012038BD002038BD002038BD00BF4C
:104080000000D04308B50C290FD8DFE801F0070E77
:104090000E0E070E0E0E070E0E0E0700FEF70EF8A0
:1040A00008B1002008BD012008BD012008BD0000A6
:1040B00030B583B005460C460DF10701FDF76BFEE8
:1040C00000282ED09DF80730022B12D00DF10601EA
:1040D0002846FDF7D9FD38B39DF806300C2B1CD8C7
:1040E000DFE803F00B1B1B1B0F1B1B1B131B1B1BF6
:1040F00017000E4B2360002014E00D4B23600020BE
:1041000010E00C4B236000200CE00B4B23600020E0
:1041100008E00A4B2360002004E0094B23600120E3
:1041200000E0012003B030BD0120FBE700008C401F
:1041300000000C4100008C4100000C4200008C4249
:10414000000080BF70B582B006460D460023009384
:1041500001A9FFF71FF8012819D09DF805301B02AF
:104160001BB29DF804401C4369463046FFF7A0FF90
:1041700001280CD007EE904AF8EEE77A9DED007A20
:1041800067EE877AFDEEE77AC5ED007A002002B08F
:1041900070BD000030B583B004460D460DF1060138
:1041A000FDF7F9FD10B9012003B030BD0DF1070195
:1041B0002046FDF769FD40B39DF80630022B0CD078
:1041C0009DF807300C2B1CD8DFE803F00B1B1B1BE2
:1041D0000F1B1B1B131B1B1B17000D4B2B60002001
:1041E000E2E70C4B2B600020DEE70B4B2B6000203E
:1041F000DAE70A4B2B600020D6E7094B2B60002042
:10420000D2E7084B2B600120CEE70120CCE700BFAE
:104210000000FA42000075430000FA4300007A44AF
:104220000000FA44000080BF08B5382925D8DFE82F
:1042300001F01D242424242424241D2424242424A3
:1042400024241D242424242424241D24242424243C
:1042500024241D242424242424241D24242424242C
:1042600024241D242424242424241D00FDF71EFEC0
:1042700008B1002008BD012008BD012008BD10B50F
:1042800082B00C460DF10701FEF76DF850B19DF8B4
:10429000073023B1012B08D12370002003E0002058
:1042A000207000E0012002B010BD0120FBE710B536
:1042B00082B002AC04F8012D01232246FDF708FC70
:1042C00010B1002002B010BD0120FBE708B5FFF7D8
:1042D000EEFF012800D0002008BD08B5FFF7E7FF7A
:1042E000012800D0002008BD10B582B00C460DF1A9
:1042F0000701FDF798FC002849D09DF80730502BA6
:1043000031D011D8202B26D006D803B3102B3AD1A8
:10431000204B236000203BE0302B20D0402B32D1BB
:104320001D4B2360002033E0802B24D007D8602B66
:104330001DD0702B27D1194B2360002028E0902B33
:104340001DD0A02B1FD1164B2360002020E000239E
:10435000236000201CE0134B2360002018E0124B68
:104360002360002014E0114B2360002010E0104B6C
:10437000236000200CE00F4B2360002008E00E4B70
:104380002360002004E00D4B2360012000E00120A9
:1043900002B010BD000050410000D0420040504427
:1043A0000020D0450000D0410000504200005043A2
:1043B0000000D0430080CF4400205045000080BF63
:1043C0008368196883790BB90020704710B50446DB
:1043D0000431FFF789FF012808D000212046FDF7AE
:1043E00001FC10B10020A07110BD012010BD10B55E
:1043F00082B00C4600230093ADF804306946FDF707
:10440000CCFBB8B19DF801209DF8003003EB0223EE
:1044100023809DF803209DF8023003EB0223638084
:104420009DF805209DF8043003EB0223A3800020B3
:1044300002B010BD0120FBE710B582B00C46694602
:10444000FFF7D5FF012809D0BDF900302380BDF961
:1044500002306380BDF90430A380002002B010BD9B
:1044600030B585B005460C460023019302A9FFF73D
:10447000BEFF01282CD001A92846FEF70FFE012817
:1044800026D0BDF9083007EE103AB8EEC77ADDED58
:10449000016A27EE267ABDEEC77A84ED007ABDF96F
:1044A0000A3007EE103AB8EEC77A27EE267ABDEE4C
:1044B000C77A84ED017ABDF90C3007EE903AF8EE38
:1044C000E77A67EEA67AFDEEE77AC4ED027A00207D
:1044D00005B030BD08B5FDF703FB08B1002008BDED
:1044E000012008BD10B582B0044602A9002301F8DE
:1044F000013DFFF7EFFF012805D022789DF8073036
:104500009A4202D0012002B010BD0020FBE708B59E
:10451000FFF7E8FF08BD70B5044683681D682E6884
:10452000FFF7E0FF01282CD02046FFF731FD0128DE
:1045300027D02046FFF7B3F8012822D02046FFF706
:10454000BBFC01281DD02046FFF7F1FA012818D046
:104550002046FFF722FA012813D02046FFF71DFC62
:1045600001280ED02046FFF79AFB012809D02046EB
:10457000FFF726FF012804D000236B600020307075
:10458000607170BD08B5FFF7ADFF08BD08B5FFF756
:10459000A1FF08BD08B5FFF79DFF08BD70B5044633
:1045A00083681D682E68FFF79DFF01281CD0042139
:1045B0002046FDF741FD08B9012070BD402120468D
:1045C000FDF799FA08B9012070BD00212046FDF7DA
:1045D000AFFC08B9012070BD094B6B60002120467B
:1045E000FDF700FB08B9012070BD00212046FFF750
:1045F00099F80128F8D0012333706371002070BD51
:104600000000D04210B582B00C460DF10701FDF755
:10461000BAFE58B19DF807302BB1022B09D1012306
:104620002370002003E00020207000E0012002B091
:1046300010BD0120FBE7000038B50446DFED1D7A10
:10464000B4EEE70AF1EE10FA16D9DFED1B7AB4EEFC
:10465000E70AF1EE10FA15D9DFED187AB4EEE70AA1
:10466000F1EE10FA16D9DFED167AB4EEE70AF1EEA4
:1046700010FA11D8082506E00221FDF76BFBB0B94E
:10468000012038BD002500212046FDF763FB28B935
:10469000012038BD0425F6E70C25F4E7294620461D
:1046A000FDF7D1FA08B1002038BD012038BD002047
:1046B00038BD00BF0000FA42000075430000FA4315
:1046C00000007A4402290BD0042902D011B1012044
:1046D00070470C2108B5FDF7B6FA18B1002008BDE7
:1046E0000421F7E7012008BD08B5F2EE0A7AB4EE1E
:1046F000E70AF1EE10FA39D9F3EE0A7AB4EEE70AD6
:10470000F1EE10FA38D9DFED257AB4EEE70AF1EED2
:1047100010FA33D9DFED227AB4EEE70AF1EE10FA9F
:104720002ED9DFED207AB4EEE70AF1EE10FA29D99E
:10473000DFED1D7AB4EEE70AF1EE10FA24D9DFEDD1
:104740001B7AB4EEE70AF1EE10FA1FD9DFED187A02
:10475000B4EEE70AF1EE10FA1AD9DFED167AB4EEEC
:10476000E70AF1EE10FA15D8902100E01021FDF7CC
:10477000C0FA88B1002008BD2021F8E73021F6E713
:104780004021F4E75021F2E76021F0E77021EEE7E5
:104790008021ECE7A021EAE7012008BD000050429B
:1047A0000000D042000050430000D043004050447D
:1047B0000080CF440020504508B58379012B05D0F7
:1047C000FEF79CFB012808D0002008BDFFF78CFFF6
:1047D000012801D0002008BD08BD08BD83681A6803
:1047E0008379012B0BD010B5044692ED010AFFF737
:1047F0007BFF012805D00123A371002010BD0020FC
:10480000704710BD08B5042912D8DFE801F0030392
:1048100009050700102104E0302102E0402100E0FA
:104820002021FDF766FA08B1002008BD012008BD6F
:10483000012008BD08B58379012B05D0FEF736FBB2
:10484000012808D0002008BDFFF7DCFF012801D0B7
:10485000002008BD08BD08BD70B5044683681D680A
:104860002E68FFF73FFE01281CD004212046FDF7EB
:10487000E3FB08B9012070BD40212046FDF73BF95C
:1048800008B9012070BD00212046FDF751FB08B991
:10489000012070BD094B6B6000212046FDF729FA0D
:1048A00008B9012070BD04212046FFF70BFF012845
:1048B000F8D0012373706371002070BD0000D042F6
:1048C00010B582B00C460DF10701FDF733FA002850
:1048D00049D09DF80730502B31D011D8202B26D04D
:1048E00006D803B3102B3AD1204B236000203BE0C5
:1048F000302B20D0402B32D11D4B2360002033E0E1
:10490000802B24D007D8602B1DD0702B27D1194BBA
:104910002360002028E0902B1DD0A02B1FD1164B28
:104920002360002020E00023236000201CE0134BC4
:104930002360002018E0124B2360002014E0114B8C
:104940002360002010E0104B236000200CE00F4B90
:104950002360002008E00E4B2360002004E00D4B94
:104960002360012000E0012002B010BD0000504192
:104970000000D042004050440020D0450000D0410B
:1049800000005042000050430000D0430080CF445C
:1049900000205045000080BF8368196883790BB9F7
:1049A0000020704710B504460431FFF789FF012845
:1049B00008D000212046FDF79CF910B10020A0711D
:1049C00010BD012010BD70B5044683681D682E68B7
:1049D000FFF788FD012809D02046FFF7DDFF0128F9
:1049E00004D000236B6000207070607170BD10B542
:1049F00082B00C4600230093ADF804306946FDF701
:104A000053F9B8B19DF801209DF8003003EB022363
:104A100023809DF803209DF8023003EB022363807E
:104A20009DF805209DF8043003EB0223A3800020AD
:104A300002B010BD0120FBE710B582B00C466946FC
:104A4000FFF7D5FF012809D0BDF900302380BDF95B
:104A500002306380BDF90430A380002002B010BD95
:104A600030B585B005460C460023019302A9FFF737
:104A7000BEFF01282CD001A92846FFF719FB012809
:104A800026D0BDF9083007EE103AB8EEC77ADDED52
:104A9000016A27EE267ABDEEC77A84ED007ABDF969
:104AA0000A3007EE103AB8EEC77A27EE267ABDEE46
:104AB000C77A84ED017ABDF90C3007EE903AF8EE32
:104AC000E77A67EEA67AFDEEE77AC4ED027A002077
:104AD00005B030BD30B589B0002501951D4C236B64
:104AE00043F002032363236B03F002030193019B52
:104AF0004FF4407303931223049302230693059506
:104B00000423079303A9144801F0CAF80295236C03
:104B100043F400132364236C03F400130293029BF9
:104B2000236A43F400132362236A23F400132362ED
:104B3000012229461F2000F029FE1F2000F058FE08
:104B40002A462946202000F021FE202000F050FEB9
:104B500009B030BD003802400004024010B50F48D3
:104B600001F0F2FE30B10D4801F0EEFE202813D026
:104B7000012010BD094C0A4B63600023A36033235E
:104B8000E3604FF480432361064B2360FFF7A2FFED
:104B9000204601F0F9FBE6E7002010BD8C02002062
:104BA000801A06000054004008B5034801F07AFC62
:104BB00000B1012008BD00BF8C02002008B5FFF73E
:104BC000F3FF00B108BDFFF7C9FFFBE710B584B0E4
:104BD00004464FF4805002900193009201230A464C
:104BE0002146064801F078FC10B9002004B010BD41
:104BF0002046FFF7E3FF0120F8E700BF8C0200200A
:104C000010B584B004464FF4805002900193009296
:104C100001230A462146064801F01CFD10B9002078
:104C200004B010BD2046FFF7C9FF0120F8E700BF20
:104C30008C02002008B5FFF791FF08BD2DE9F04177
:104C400088B0002403940494059406940794019476
:104C5000204D2B6B43F002032B632B6B03F00203FD
:104C60000193019B20230393DFF87080CDF810801F
:104C700002270697184E03A9304601F011F8224684
:104C80002146172000F082FD172000F0B1FD0394AB
:104C9000049405940694079402942B6B3B432B6376
:104CA0002B6B3B400293029B10230393CDF81080A3
:104CB000069703A9304600F0F3FF224621460A205A
:104CC00000F064FD0A2000F093FD204608B0BDE826
:104CD000F08100BF003802400004024000001110C3
:104CE0002DE9F04105460F4690461E460378402BBD
:104CF00010D004D9B12B0BD10024204622E0332B55
:104D000008D0334642463946A878FFF75FFF0BE0EC
:104D1000BC2BF6D1012E01D947F08007334642461D
:104D20003946A878FFF752FF003018BF0120BDE8D0
:104D3000F0813919012308EB0402C9B2A878FFF702
:104D400045FF0134B442EFDA0028F2D0ECE72DE958
:104D5000F04105460F4690461E460378402B10D082
:104D600004D9B12B0BD10024204622E0332B08D0EC
:104D7000334642463946A878FFF742FF0BE0BC2B8A
:104D8000F6D1012E01D947F0800733464246394615
:104D9000A878FFF735FF003018BF0120BDE8F0818B
:104DA0003919012308EB0402C9B2A878FFF728FFDC
:104DB0000134B442EFDA0028F2D0ECE7214B5B7EFD
:104DC000012B3CD010B50446FFF734FF012822D058
:104DD0001C4B33221A7500225A7532219975012114
:104DE00019765A769A76D97603F13001D961164947
:104DF00019625A621946154841F8380F19635A6307
:104E000003F1140222601B6A1B682BB110489847FB
:104E100001280BD0002010BDA2F114014B6153609A
:104E20009360D36013612360012010BD22680023CA
:104E3000136053609360D3601361236010BD012041
:104E4000704700BFE0020020000000207404002032
:104E5000F4020020214B5B79012B3CD010B50446B5
:104E6000FFF7E8FE012838D01C4B6A221A70002296
:104E70005A70D62199701A715A719A710121D9719B
:104E800003F1280199601649D9601649196119463C
:104E9000154841F8400F9962DA622360DB681B68AD
:104EA0003BB10E48984701280CD0FFF7C7FE002001
:104EB00010BD0A4A136053609360D360136123608E
:104EC000012010BD22680023136053609360D360FB
:104ED0001361236010BD0120704710BDE002002067
:104EE000A00000202C0100207804002010B50C4602
:104EF00000230B6080B1012816D00846FFF7AAFFF7
:104F0000012801D0002010BD2046FFF757FF0128DF
:104F100001D0002010BD10BD0846FFF79BFF0128FF
:104F200001D0002010BD10BD0846FFF747FF012843
:104F300001D0002010BD10BD48B108B5C26892680C
:104F40003AB19047012801D0002008BD08BD0120DA
:104F50007047012008BD50B108B5C26849B19269D7
:104F60004AB19047012801D0002008BD08BD0120AA
:104F70007047012008BD012008BD48B108B5C268CE
:104F8000D26C3AB19047012801D0002008BD08BD7D
:104F900001207047012008BD214B5B79012B3CD0DB
:104FA00010B50446FFF746FE012838D01C4B6A2294
:104FB0001A7000225A70D62199701A715A719A711A
:104FC0000121D97103F1140199601649D96016497C
:104FD00019611946154841F81C0F59619A612360FF
:104FE000DB681B683BB10E48984701280CD0FFF7DF
:104FF00025FE002010BD0A4A136053609360D36001
:1050000013612360012010BD2268002313605360E8
:105010009360D3601361236010BD0120704710BD01
:105020002803002050000020F00000207804002019
:1050300008B500230B6038B10846FFF7ADFF012823
:1050400001D0002008BD08BD0846FFF7A5FF0128D4
:1050500001D0002008BD08BD48B108B5C2689268FB
:105060003AB19047012801D0002008BD08BD0120B9
:105070007047012008BD50B108B5C26849B19269B6
:105080004AB19047012801D0002008BD08BD012089
:105090007047012008BD012008BD48B108B5C268AD
:1050A000D26C3AB19047012801D0002008BD08BD5C
:1050B00001207047012008BD10B504460E4B18783A
:1050C0004FF47A73B3FBF0F30C4A1068B0FBF3F0C3
:1050D00000F09AFB68B90F2C01D9012010BD002205
:1050E00021464FF0FF3000F051FB034B5C60002085
:1050F00010BD012010BD00BF0002002008020020EA
:1051000008B50B4B1A6842F400721A601A6842F430
:1051100080621A601A6842F480721A60032000F0FC
:1051200023FB0020FFF7C8FF04F0C8FC002008BDE7
:10513000003C0240034A1168034B1B780B44136088
:10514000704700BF7C04002000020020014B18685B
:10515000704700BF7C04002038B50446FFF7F6FF17
:105160000546B4F1FF3F02D0044B1B781C44FFF707
:10517000EDFF401B8442FAD838BD00BF000200207A
:10518000494B5A6822F440325A605A6841680A43CF
:105190005A600268536823F480735360026853684E
:1051A000016943EA012353600268536823F04073A6
:1051B00053600268536881680B43536002689368C8
:1051C00023F40063936002689368C1680B439360A3
:1051D000826A364B9A4249D00268936823F0706322
:1051E000936002689368816A0B43936002689368D6
:1051F00023F04053936002689368C16A0B43936045
:105200000268936823F002039360026893688169DF
:1052100043EA41039360036A002B32D1026853686A
:1052200023F4006353600268D36A23F47003D362EB
:105230000168CB6AC269013A43EA0253CB62026851
:10524000936823F40073936002689368016B43EAE8
:10525000412393600268936823F48063936002683B
:105260009368416943EA81239360704702689368B9
:1052700023F0706393600268936823F04053936057
:10528000BEE70268536843F40063536002685368E2
:1052900023F46043536001684B68426A013A43EA71
:1052A00042334B60BFE700BF002301400100000F05
:1052B00030B310B50446036C43B1236C13F0100FE8
:1052C0000AD00120002384F83C3010BD436480F8EC
:1052D0003C3004F03DFCF0E7236C23F4885323F0CA
:1052E000020343F0020323642046FFF749FF002036
:1052F0006064236C23F0030343F001032364E1E7BC
:105300000120704782B00023019390F83C30012BBC
:105310006AD0012380F83C3003689A6812F0010FCC
:1053200013D19A6842F001029A60344B1B68344AE8
:10533000A2FB03239B0C03EB4303019302E0019BBD
:10534000013B0193019B002BF9D10268936813F094
:10535000010F4CD0036C23F4E06323F0010343F40A
:1053600080730364536813F4806F05D0036C23F4D7
:10537000405343F480530364036C13F4805F20D0E4
:10538000436C23F006034364002380F83C306FF045
:10539000220313600268536843F0806343F02003E4
:1053A0005360184B5B6813F01F0F0DD103689A68A8
:1053B00012F0405F1DD19A6842F080429A6000204E
:1053C00013E000234364DFE703680F4A934201D0F0
:1053D00000200AE09A6812F0405F0CD19A6842F00F
:1053E00080429A60002000E0022002B07047002056
:1053F000FBE70020F9E70020F7E700BF08020020E4
:1054000083DE1B43002301400020014030B583B000
:105410000023019390F83C30012B00F081800123A0
:1054200080F83C3003689C6814F0010F13D19C682D
:1054300044F001049C603F4B1C683F4BA3FB0434C9
:10544000A40C04EB4404019402E0019C013C01948F
:10545000019C002CF9D103689C6814F0010F62D004
:10546000046C24F4E06424F0010444F480740464C3
:105470005B6813F4806F05D0036C23F4405343F44E
:1054800080530364036C13F4805F36D0436C23F0C5
:105490000603436413460446002280F83C20826BD6
:1054A0002648D063A26B26481064A26B2548D064BE
:1054B00022686FF0220010602568686840F0806004
:1054C00068602568A86840F48070A86020680A4673
:1054D00000F14C01A06B00F0A7FA1B4B5B6813F0C6
:1054E0001F0F0DD123689A6812F0405F1DD19A6892
:1054F00042F080429A60002013E000234364C9E731
:105500002368124A934201D000200AE09A6812F000
:10551000405F0CD19A6842F080429A60002000E01F
:10552000022003B030BD0020FBE70020F9E7002097
:10553000F7E700BF0802002083DE1B435155000837
:10554000B5550008C1550008002301400020014066
:1055500008B5836B1A6C12F0500F26D11A6C42F406
:1055600000721A641A68916811F0405F19D1996944
:10557000B9B9D16A11F4700F03D0916811F4806F3A
:105580000FD1516821F0200151601A6C22F4807211
:105590001A641A6C12F4805F03D11A6C42F0010293
:1055A0001A64184602F016FF08BD9B6BDB6C984727
:1055B00008BD704708B5806BFFF7FBFF08BD70475B
:1055C00008B5806B40230364436C43F004034364D9
:1055D000FFF7F5FF08BD000030B482B0002301934F
:1055E00090F83C30012B00F0B780012380F83C306C
:1055F0000B68092B3ED90568EA689BB203EB4303AD
:105600001E3B072404FA03F322EA0303EB60056858
:10561000EA688C680B8803EB43031E3B04FA03F330
:105620001343EB604B68062B3AD805686A6B03EBB3
:105630008303053B1F2404FA03F322EA03036B638D
:1056400005686A6B4B6803EB8303053B0C8804FA1F
:1056500003F313436B630268404B9A4250D00268D5
:105660003E4B9A4255D0002380F83C30184602B099
:1056700030BC704705682A699BB203EB43030724DB
:1056800004FA03F322EA03032B6105682A698C6894
:105690000B8803EB430304FA03F313432B61C1E7C5
:1056A0000C2B16D805682A6B03EB8303233B1F24BE
:1056B00004FA03F322EA03032B6305682A6B4B68A1
:1056C00003EB8303233B0C8804FA03F313432B639C
:1056D000C1E70568EA6A03EB8303413B1F2404FA30
:1056E00003F322EA0303EB620568EA6A4B6803EB03
:1056F0008303413B0C8804FA03F31343EB62AAE7EC
:105700000B68122BABD1164A536843F480035360E5
:10571000A5E70B68103B012BA5D8114A536843F449
:10572000000353600B68102B9DD10E4B1B6802F1D8
:10573000467202F52E3202F28332A2FB03239B0C47
:1057400003EB83035A00019202E0019B013B0193AA
:10575000019B002BF9D186E7022088E70020014059
:105760000023014008020020074AD36823F4E063C5
:105770001B041B0C000200F4E060184340F0BF6003
:1057800040F40030D060704700ED00E030B4164BBC
:10579000DB68C3F30223C3F10704042C28BF0424ED
:1057A0001D1D062D17D9033B012505FA04F4013C04
:1057B0002140994005FA03F3013B134019430028A7
:1057C0000BDB0901C9B200F1604000F5614080F8CF
:1057D000001330BC70470023E6E700F00F0009011A
:1057E000C9B2024B1954F4E700ED00E014ED00E0FB
:1057F000420900F01F00012303FA00F0014B43F8B7
:105800002200704700E100E00138B0F1807F0AD249
:10581000064B5860F021064A82F823100020986059
:1058200007221A6070470120704700BF10E000E0B7
:1058300000ED00E0042805D0054A136823F00403B6
:1058400013607047024A136843F004031360704703
:1058500010E000E0704708B5FFF7FCFF08BD30B46A
:1058600005682C6824F480242C60046863608368D5
:10587000402B05D0036899600368DA6030BC70473C
:1058800003689A600368D960F8E700000268D3B241
:10589000103B0B49A1FB03131B090A49C95CC165F5
:1058A000032B06D822F47F7222F003028265806DFA
:1058B000704722F47F7222F0030204328265F6E719
:1058C000ABAAAAAADCAC0008836A826992B9012B50
:1058D0000AD01BB1022B01D000207047C36A13F01D
:1058E000807F2CD100207047C36AB3F1C07F28D0DD
:1058F00000207047B2F5005F05D0022B29D9032B99
:1059000015D000207047032B03D8DFE803F01C04F8
:105910001C0A00207047C36A13F0807F15D1002055
:105920007047C36AB3F1C07F11D000207047C36ACB
:1059300013F0807F01D001207047002070470120C4
:1059400070470120704701207047012070470120F7
:10595000704701207047000070B50446FFF7F6FB62
:10596000002C5DD00546002384F83430022384F8EF
:1059700035302268136823F00103136023681A6826
:1059800012F0010F0AD0FFF7E1FB401B0528F5D903
:1059900020236365032084F8350070BD1A6821490F
:1059A00011406268A0680243E06802432069024334
:1059B00060690243A0690243E0690243206A02432E
:1059C0000A43616A042916D01A602668756925F0B1
:1059D0000705636A1D43042B12D075612046FFF74B
:1059E00055FFE26D3F2393408360002060650123F3
:1059F00084F8353070BDE16A206B01430A43E3E768
:105A0000A36A1D43E36A002BE7D02046FFF75CFF43
:105A10000028E2D040236365012084F8350070BD82
:105A2000012070BD3F8010F038B5856D90F834408E
:105A3000012C31D0012480F8344090F83540E4B294
:105A4000012C04D0002380F83430022038BD0446F5
:105A5000022084F83500002060652046FFF7FFFE35
:105A6000E26D3F239340AB602268136843F0160356
:105A700013602268536943F080035361236C23B1A0
:105A80002268136843F0080313602268136843F028
:105A900001031360002038BD022038BD90F8353076
:105AA000DBB2022B03D0802343650120704705231E
:105AB00080F835300268136823F00103136000207A
:105AC00070470000F0B583B0044600230193724B89
:105AD0001D68724BA3FB0535AD0A876D3E68C26D2C
